{
  "contractName": "ETHAccess",
  "abi": [
    {
      "constant": true,
      "inputs": [
        {
          "name": "_interfaceId",
          "type": "bytes4"
        }
      ],
      "name": "supportsInterface",
      "outputs": [
        {
          "name": "",
          "type": "bool"
        }
      ],
      "payable": false,
      "stateMutability": "view",
      "type": "function"
    },
    {
      "constant": true,
      "inputs": [],
      "name": "name",
      "outputs": [
        {
          "name": "",
          "type": "string"
        }
      ],
      "payable": false,
      "stateMutability": "view",
      "type": "function"
    },
    {
      "constant": true,
      "inputs": [
        {
          "name": "_tokenId",
          "type": "uint256"
        }
      ],
      "name": "getApproved",
      "outputs": [
        {
          "name": "",
          "type": "address"
        }
      ],
      "payable": false,
      "stateMutability": "view",
      "type": "function"
    },
    {
      "constant": false,
      "inputs": [
        {
          "name": "_to",
          "type": "address"
        },
        {
          "name": "_tokenId",
          "type": "uint256"
        }
      ],
      "name": "approve",
      "outputs": [],
      "payable": false,
      "stateMutability": "nonpayable",
      "type": "function"
    },
    {
      "constant": true,
      "inputs": [
        {
          "name": "",
          "type": "address"
        }
      ],
      "name": "participants",
      "outputs": [
        {
          "name": "party",
          "type": "address"
        },
        {
          "name": "numPortalKitties",
          "type": "uint256"
        }
      ],
      "payable": false,
      "stateMutability": "view",
      "type": "function"
    },
    {
      "constant": true,
      "inputs": [],
      "name": "totalSupply",
      "outputs": [
        {
          "name": "",
          "type": "uint256"
        }
      ],
      "payable": false,
      "stateMutability": "view",
      "type": "function"
    },
    {
      "constant": true,
      "inputs": [],
      "name": "InterfaceId_ERC165",
      "outputs": [
        {
          "name": "",
          "type": "bytes4"
        }
      ],
      "payable": false,
      "stateMutability": "view",
      "type": "function"
    },
    {
      "constant": false,
      "inputs": [
        {
          "name": "_from",
          "type": "address"
        },
        {
          "name": "_to",
          "type": "address"
        },
        {
          "name": "_tokenId",
          "type": "uint256"
        }
      ],
      "name": "transferFrom",
      "outputs": [],
      "payable": false,
      "stateMutability": "nonpayable",
      "type": "function"
    },
    {
      "constant": true,
      "inputs": [],
      "name": "betaQRTLimit",
      "outputs": [
        {
          "name": "",
          "type": "uint256"
        }
      ],
      "payable": false,
      "stateMutability": "view",
      "type": "function"
    },
    {
      "constant": true,
      "inputs": [
        {
          "name": "_owner",
          "type": "address"
        },
        {
          "name": "_index",
          "type": "uint256"
        }
      ],
      "name": "tokenOfOwnerByIndex",
      "outputs": [
        {
          "name": "",
          "type": "uint256"
        }
      ],
      "payable": false,
      "stateMutability": "view",
      "type": "function"
    },
    {
      "constant": true,
      "inputs": [],
      "name": "QRTprice",
      "outputs": [
        {
          "name": "",
          "type": "uint256"
        }
      ],
      "payable": false,
      "stateMutability": "view",
      "type": "function"
    },
    {
      "constant": false,
      "inputs": [
        {
          "name": "_from",
          "type": "address"
        },
        {
          "name": "_to",
          "type": "address"
        },
        {
          "name": "_tokenId",
          "type": "uint256"
        }
      ],
      "name": "safeTransferFrom",
      "outputs": [],
      "payable": false,
      "stateMutability": "nonpayable",
      "type": "function"
    },
    {
      "constant": true,
      "inputs": [],
      "name": "betaSaleEnd",
      "outputs": [
        {
          "name": "",
          "type": "uint256"
        }
      ],
      "payable": false,
      "stateMutability": "view",
      "type": "function"
    },
    {
      "constant": true,
      "inputs": [
        {
          "name": "_tokenId",
          "type": "uint256"
        }
      ],
      "name": "exists",
      "outputs": [
        {
          "name": "",
          "type": "bool"
        }
      ],
      "payable": false,
      "stateMutability": "view",
      "type": "function"
    },
    {
      "constant": true,
      "inputs": [
        {
          "name": "_index",
          "type": "uint256"
        }
      ],
      "name": "tokenByIndex",
      "outputs": [
        {
          "name": "",
          "type": "uint256"
        }
      ],
      "payable": false,
      "stateMutability": "view",
      "type": "function"
    },
    {
      "constant": true,
      "inputs": [
        {
          "name": "_tokenId",
          "type": "uint256"
        }
      ],
      "name": "ownerOf",
      "outputs": [
        {
          "name": "",
          "type": "address"
        }
      ],
      "payable": false,
      "stateMutability": "view",
      "type": "function"
    },
    {
      "constant": true,
      "inputs": [
        {
          "name": "_owner",
          "type": "address"
        }
      ],
      "name": "balanceOf",
      "outputs": [
        {
          "name": "",
          "type": "uint256"
        }
      ],
      "payable": false,
      "stateMutability": "view",
      "type": "function"
    },
    {
      "constant": false,
      "inputs": [],
      "name": "renounceOwnership",
      "outputs": [],
      "payable": false,
      "stateMutability": "nonpayable",
      "type": "function"
    },
    {
      "constant": true,
      "inputs": [],
      "name": "portalKittyLimit",
      "outputs": [
        {
          "name": "",
          "type": "uint256"
        }
      ],
      "payable": false,
      "stateMutability": "view",
      "type": "function"
    },
    {
      "constant": true,
      "inputs": [],
      "name": "owner",
      "outputs": [
        {
          "name": "",
          "type": "address"
        }
      ],
      "payable": false,
      "stateMutability": "view",
      "type": "function"
    },
    {
      "constant": true,
      "inputs": [],
      "name": "symbol",
      "outputs": [
        {
          "name": "",
          "type": "string"
        }
      ],
      "payable": false,
      "stateMutability": "view",
      "type": "function"
    },
    {
      "constant": true,
      "inputs": [],
      "name": "totalPortalKitties",
      "outputs": [
        {
          "name": "",
          "type": "uint256"
        }
      ],
      "payable": false,
      "stateMutability": "view",
      "type": "function"
    },
    {
      "constant": false,
      "inputs": [
        {
          "name": "_to",
          "type": "address"
        },
        {
          "name": "_approved",
          "type": "bool"
        }
      ],
      "name": "setApprovalForAll",
      "outputs": [],
      "payable": false,
      "stateMutability": "nonpayable",
      "type": "function"
    },
    {
      "constant": false,
      "inputs": [
        {
          "name": "_from",
          "type": "address"
        },
        {
          "name": "_to",
          "type": "address"
        },
        {
          "name": "_tokenId",
          "type": "uint256"
        },
        {
          "name": "_data",
          "type": "bytes"
        }
      ],
      "name": "safeTransferFrom",
      "outputs": [],
      "payable": false,
      "stateMutability": "nonpayable",
      "type": "function"
    },
    {
      "constant": true,
      "inputs": [
        {
          "name": "_tokenId",
          "type": "uint256"
        }
      ],
      "name": "tokenURI",
      "outputs": [
        {
          "name": "",
          "type": "string"
        }
      ],
      "payable": false,
      "stateMutability": "view",
      "type": "function"
    },
    {
      "constant": true,
      "inputs": [
        {
          "name": "_owner",
          "type": "address"
        },
        {
          "name": "_operator",
          "type": "address"
        }
      ],
      "name": "isApprovedForAll",
      "outputs": [
        {
          "name": "",
          "type": "bool"
        }
      ],
      "payable": false,
      "stateMutability": "view",
      "type": "function"
    },
    {
      "constant": false,
      "inputs": [
        {
          "name": "_newOwner",
          "type": "address"
        }
      ],
      "name": "transferOwnership",
      "outputs": [],
      "payable": false,
      "stateMutability": "nonpayable",
      "type": "function"
    },
    {
      "constant": true,
      "inputs": [],
      "name": "ck",
      "outputs": [
        {
          "name": "",
          "type": "address"
        }
      ],
      "payable": false,
      "stateMutability": "view",
      "type": "function"
    },
    {
      "inputs": [
        {
          "name": "betaSaleLength",
          "type": "uint256"
        },
        {
          "name": "_ckAddress",
          "type": "address"
        },
        {
          "name": "name",
          "type": "string"
        },
        {
          "name": "symbol",
          "type": "string"
        }
      ],
      "payable": false,
      "stateMutability": "nonpayable",
      "type": "constructor"
    },
    {
      "anonymous": false,
      "inputs": [
        {
          "indexed": true,
          "name": "_from",
          "type": "address"
        },
        {
          "indexed": true,
          "name": "_time",
          "type": "uint256"
        },
        {
          "indexed": true,
          "name": "_tokenId",
          "type": "uint256"
        }
      ],
      "name": "QRTPurchase",
      "type": "event"
    },
    {
      "anonymous": false,
      "inputs": [
        {
          "indexed": true,
          "name": "_from",
          "type": "address"
        },
        {
          "indexed": true,
          "name": "_time",
          "type": "uint256"
        }
      ],
      "name": "KittiesPortal",
      "type": "event"
    },
    {
      "anonymous": false,
      "inputs": [
        {
          "indexed": true,
          "name": "_from",
          "type": "address"
        },
        {
          "indexed": true,
          "name": "_to",
          "type": "address"
        },
        {
          "indexed": true,
          "name": "_tokenId",
          "type": "uint256"
        }
      ],
      "name": "Transfer",
      "type": "event"
    },
    {
      "anonymous": false,
      "inputs": [
        {
          "indexed": true,
          "name": "_owner",
          "type": "address"
        },
        {
          "indexed": true,
          "name": "_approved",
          "type": "address"
        },
        {
          "indexed": true,
          "name": "_tokenId",
          "type": "uint256"
        }
      ],
      "name": "Approval",
      "type": "event"
    },
    {
      "anonymous": false,
      "inputs": [
        {
          "indexed": true,
          "name": "_owner",
          "type": "address"
        },
        {
          "indexed": true,
          "name": "_operator",
          "type": "address"
        },
        {
          "indexed": false,
          "name": "_approved",
          "type": "bool"
        }
      ],
      "name": "ApprovalForAll",
      "type": "event"
    },
    {
      "anonymous": false,
      "inputs": [
        {
          "indexed": true,
          "name": "previousOwner",
          "type": "address"
        }
      ],
      "name": "OwnershipRenounced",
      "type": "event"
    },
    {
      "anonymous": false,
      "inputs": [
        {
          "indexed": true,
          "name": "previousOwner",
          "type": "address"
        },
        {
          "indexed": true,
          "name": "newOwner",
          "type": "address"
        }
      ],
      "name": "OwnershipTransferred",
      "type": "event"
    },
    {
      "constant": false,
      "inputs": [],
      "name": "purchaseQRT",
      "outputs": [],
      "payable": true,
      "stateMutability": "payable",
      "type": "function"
    },
    {
      "constant": false,
      "inputs": [],
      "name": "purchaseQRTbeta",
      "outputs": [],
      "payable": true,
      "stateMutability": "payable",
      "type": "function"
    },
    {
      "constant": false,
      "inputs": [
        {
          "name": "ids",
          "type": "uint256[10]"
        }
      ],
      "name": "portalCryptoKitties",
      "outputs": [],
      "payable": false,
      "stateMutability": "nonpayable",
      "type": "function"
    },
    {
      "constant": false,
      "inputs": [],
      "name": "withdraw",
      "outputs": [],
      "payable": false,
      "stateMutability": "nonpayable",
      "type": "function"
    }
  ],
  "bytecode": "0x60806040526000600d55600a600e556005600f55600060105567016345785d8a00006011553480156200003157600080fd5b5060405162001982380380620019828339810160409081528151602083015191830151606084015160008054600160a060020a03191633179055919390810191018181620000a87f01ffc9a700000000000000000000000000000000000000000000000000000000640100000000620001d4810204565b620000dc7f80ac58cd00000000000000000000000000000000000000000000000000000000640100000000620001d4810204565b620001107f4f558e7900000000000000000000000000000000000000000000000000000000640100000000620001d4810204565b81516200012590600690602085019062000244565b5080516200013b90600790602084019062000244565b50620001707f780e9d6300000000000000000000000000000000000000000000000000000000640100000000620001d4810204565b620001a47f5b5e139f00000000000000000000000000000000000000000000000000000000640100000000620001d4810204565b505050600d9290925560128054600160a060020a031916600160a060020a039290921691909117905550620002e9565b7fffffffff0000000000000000000000000000000000000000000000000000000080821614156200020457600080fd5b7fffffffff00000000000000000000000000000000000000000000000000000000166000908152600160208190526040909120805460ff19169091179055565b828054600181600116156101000203166002900490600052602060002090601f016020900481019282601f106200028757805160ff1916838001178555620002b7565b82800160010185558215620002b7579182015b82811115620002b75782518255916020019190600101906200029a565b50620002c5929150620002c9565b5090565b620002e691905b80821115620002c55760008155600101620002d0565b90565b61168980620002f96000396000f3006080604052600436106101955763ffffffff7c010000000000000000000000000000000000000000000000000000000060003504166301ffc9a7811461019a57806306fdde03146101e5578063081812fc1461026f578063095ea7b3146102a357806309e69ede146102c957806318160ddd1461030d57806319fa8f501461033457806323b872dd1461037b5780632aefb19c146103a55780632f745c59146103ba5780633c461c37146103de5780633ccfd60b146103f357806342842e0e146104085780634b4a5f42146104325780634f558e79146104475780634f6ccce71461045f5780636352211e1461047757806370a082311461048f578063715018a6146104b057806371e0e2dc146104c557806377397a45146104cd5780638526202f146104e25780638da5cb5b146105275780638e377dc61461053c57806395d89b41146105445780639fd1549e14610559578063a22cb4651461056e578063b88d4fde14610594578063c87b56dd14610603578063e985e9c51461061b578063f2fde38b14610642578063f5c901db14610663575b600080fd5b3480156101a657600080fd5b506101d17bffffffffffffffffffffffffffffffffffffffffffffffffffffffff1960043516610678565b604080519115158252519081900360200190f35b3480156101f157600080fd5b506101fa6106ac565b6040805160208082528351818301528351919283929083019185019080838360005b8381101561023457818101518382015260200161021c565b50505050905090810190601f1680156102615780820380516001836020036101000a031916815260200191505b509250505060405180910390f35b34801561027b57600080fd5b50610287600435610743565b60408051600160a060020a039092168252519081900360200190f35b3480156102af57600080fd5b506102c7600160a060020a036004351660243561075e565b005b3480156102d557600080fd5b506102ea600160a060020a0360043516610814565b60408051600160a060020a03909316835260208301919091528051918290030190f35b34801561031957600080fd5b50610322610839565b60408051918252519081900360200190f35b34801561034057600080fd5b5061034961083f565b604080517bffffffffffffffffffffffffffffffffffffffffffffffffffffffff199092168252519081900360200190f35b34801561038757600080fd5b506102c7600160a060020a0360043581169060243516604435610863565b3480156103b157600080fd5b50610322610906565b3480156103c657600080fd5b50610322600160a060020a036004351660243561090c565b3480156103ea57600080fd5b50610322610959565b3480156103ff57600080fd5b506102c761095f565b34801561041457600080fd5b506102c7600160a060020a03600435811690602435166044356109b4565b34801561043e57600080fd5b506103226109d5565b34801561045357600080fd5b506101d16004356109db565b34801561046b57600080fd5b506103226004356109f8565b34801561048357600080fd5b50610287600435610a2d565b34801561049b57600080fd5b50610322600160a060020a0360043516610a57565b3480156104bc57600080fd5b506102c7610a8a565b6102c7610af6565b3480156104d957600080fd5b50610322610b99565b3480156104ee57600080fd5b50604080516101408181019092526102c791369160049161014491908390600a90839083908082843750939650610b9f95505050505050565b34801561053357600080fd5b50610287610da1565b6102c7610db0565b34801561055057600080fd5b506101fa610de4565b34801561056557600080fd5b50610322610e45565b34801561057a57600080fd5b506102c7600160a060020a03600435166024351515610e4b565b3480156105a057600080fd5b50604080516020601f6064356004818101359283018490048402850184019095528184526102c794600160a060020a038135811695602480359092169560443595369560849401918190840183828082843750949750610ecf9650505050505050565b34801561060f57600080fd5b506101fa600435610ef7565b34801561062757600080fd5b506101d1600160a060020a0360043581169060243516610fac565b34801561064e57600080fd5b506102c7600160a060020a0360043516610fda565b34801561066f57600080fd5b50610287610ffa565b7bffffffffffffffffffffffffffffffffffffffffffffffffffffffff191660009081526001602052604090205460ff1690565b60068054604080516020601f60026000196101006001881615020190951694909404938401819004810282018101909252828152606093909290918301828280156107385780601f1061070d57610100808354040283529160200191610738565b820191906000526020600020905b81548152906001019060200180831161071b57829003601f168201915b505050505090505b90565b600090815260036020526040902054600160a060020a031690565b600061076982610a2d565b9050600160a060020a03838116908216141561078457600080fd5b33600160a060020a03821614806107a057506107a08133610fac565b15156107ab57600080fd5b600082815260036020526040808220805473ffffffffffffffffffffffffffffffffffffffff1916600160a060020a0387811691821790925591518593918516917f8c5be1e5ebec7d5bd14f71427d1e84f3dd0314c0f7b2291e5b200ac8c7c3b92591a4505050565b60136020526000908152604090208054600190910154600160a060020a039091169082565b600a5490565b7f01ffc9a70000000000000000000000000000000000000000000000000000000081565b61086d3382611009565b151561087857600080fd5b600160a060020a038316151561088d57600080fd5b600160a060020a03821615156108a257600080fd5b6108ac8382611068565b6108b683826110d9565b6108c082826111e0565b8082600160a060020a031684600160a060020a03167fddf252ad1be2c89b69c2b068fc378daa952ba7f163c4a11628f55a4df523b3ef60405160405180910390a4505050565b600e5481565b600061091783610a57565b821061092257600080fd5b600160a060020a038316600090815260086020526040902080548390811061094657fe5b9060005260206000200154905092915050565b60115481565b600054600160a060020a0316331461097657600080fd5b60008054604051600160a060020a0390911691303180156108fc02929091818181858888f193505050501580156109b1573d6000803e3d6000fd5b50565b6109d08383836020604051908101604052806000815250610ecf565b505050565b600d5481565b600090815260026020526040902054600160a060020a0316151590565b6000610a02610839565b8210610a0d57600080fd5b600a805483908110610a1b57fe5b90600052602060002001549050919050565b600081815260026020526040812054600160a060020a0316801515610a5157600080fd5b92915050565b6000600160a060020a0382161515610a6e57600080fd5b50600160a060020a031660009081526004602052604090205490565b600054600160a060020a03163314610aa157600080fd5b60008054604051600160a060020a03909116917ff8df31144d9c2f0f6b59d69b8b98abd5459d07f2742c4df920b25aae33c6482091a26000805473ffffffffffffffffffffffffffffffffffffffff19169055565b6011546000903414610b0757600080fd5b600d544211610b1557600080fd5b610b2e6001610b22610839565b9063ffffffff61122916565b336000818152601360205260409020805473ffffffffffffffffffffffffffffffffffffffff191682179055909150610b679082611236565b6040518190429033907f01bdca7ec6d4840d7481f12f165ab469f9943fa4780125e5429241cbcfc2f2a490600090a450565b600f5481565b600d546000904210610bb057600080fd5b601254604080517f70a082310000000000000000000000000000000000000000000000000000000081523360048201529051600a92600160a060020a0316916370a082319160248083019260209291908290030181600087803b158015610c1657600080fd5b505af1158015610c2a573d6000803e3d6000fd5b505050506040513d6020811015610c4057600080fd5b50511015610c4d57600080fd5b600f546010541115610c5e57600080fd5b5060005b600a811015610d1f57601254600160a060020a03166323b872dd33308585600a8110610c8a57fe5b6020020151604080517c010000000000000000000000000000000000000000000000000000000063ffffffff8716028152600160a060020a03948516600482015292909316602483015260448201529051606480830192600092919082900301818387803b158015610cfb57600080fd5b505af1158015610d0f573d6000803e3d6000fd5b505060019092019150610c629050565b336000908152601360205260409020600190810154610d439163ffffffff61122916565b336000908152601360205260409020600190810191909155601054610d6d9163ffffffff61122916565b601055604051429033907fe61805e2b0dd417d272320bdb786471c411b928644454606bd864d95a0242cae90600090a35050565b600054600160a060020a031681565b600d546000904210610dc157600080fd5b6011543414610dcf57600080fd5b600e54610dda610839565b10610b1557600080fd5b60078054604080516020601f60026000196101006001881615020190951694909404938401819004810282018101909252828152606093909290918301828280156107385780601f1061070d57610100808354040283529160200191610738565b60105481565b600160a060020a038216331415610e6157600080fd5b336000818152600560209081526040808320600160a060020a03871680855290835292819020805460ff1916861515908117909155815190815290519293927f17307eab39ab6107e8899845ad3d59bd9653f200f220920489ca2b5937696c31929181900390910190a35050565b610eda848484610863565b610ee684848484611285565b1515610ef157600080fd5b50505050565b6060610f02826109db565b1515610f0d57600080fd5b6000828152600c602090815260409182902080548351601f600260001961010060018616150201909316929092049182018490048402810184019094528084529091830182828015610fa05780601f10610f7557610100808354040283529160200191610fa0565b820191906000526020600020905b815481529060010190602001808311610f8357829003601f168201915b50505050509050919050565b600160a060020a03918216600090815260056020908152604080832093909416825291909152205460ff1690565b600054600160a060020a03163314610ff157600080fd5b6109b181611407565b601254600160a060020a031681565b60008061101583610a2d565b905080600160a060020a031684600160a060020a03161480611050575083600160a060020a031661104584610743565b600160a060020a0316145b8061106057506110608185610fac565b949350505050565b81600160a060020a031661107b82610a2d565b600160a060020a03161461108e57600080fd5b600081815260036020526040902054600160a060020a0316156110d5576000818152600360205260409020805473ffffffffffffffffffffffffffffffffffffffff191690555b5050565b60008060006110e88585611484565b600084815260096020908152604080832054600160a060020a038916845260089092529091205490935061112390600163ffffffff61151a16565b600160a060020a03861660009081526008602052604090208054919350908390811061114b57fe5b90600052602060002001549050806008600087600160a060020a0316600160a060020a031681526020019081526020016000208481548110151561118b57fe5b6000918252602080832090910192909255600160a060020a03871681526008909152604090208054906111c2906000198301611620565b50600093845260096020526040808520859055908452909220555050565b60006111ec838361152c565b50600160a060020a039091166000908152600860209081526040808320805460018101825590845282842081018590559383526009909152902055565b81810182811015610a5157fe5b61124082826115bd565b600a80546000838152600b60205260408120829055600182018355919091527fc65a7bb8d6351c1cf70c95a316cc6a92839c986682d98bc35f958f4883f9d2a8015550565b60008061129a85600160a060020a0316611618565b15156112a957600191506113fe565b6040517f150b7a020000000000000000000000000000000000000000000000000000000081523360048201818152600160a060020a03898116602485015260448401889052608060648501908152875160848601528751918a169463150b7a0294938c938b938b93909160a490910190602085019080838360005b8381101561133c578181015183820152602001611324565b50505050905090810190601f1680156113695780820380516001836020036101000a031916815260200191505b5095505050505050602060405180830381600087803b15801561138b57600080fd5b505af115801561139f573d6000803e3d6000fd5b505050506040513d60208110156113b557600080fd5b50517bffffffffffffffffffffffffffffffffffffffffffffffffffffffff1981167f150b7a020000000000000000000000000000000000000000000000000000000014925090505b50949350505050565b600160a060020a038116151561141c57600080fd5b60008054604051600160a060020a03808516939216917f8be0079c531659141344cd1fd0a4f28419497f9722a3daafe3b4186f6b6457e091a36000805473ffffffffffffffffffffffffffffffffffffffff1916600160a060020a0392909216919091179055565b81600160a060020a031661149782610a2d565b600160a060020a0316146114aa57600080fd5b600160a060020a0382166000908152600460205260409020546114d490600163ffffffff61151a16565b600160a060020a03909216600090815260046020908152604080832094909455918152600290915220805473ffffffffffffffffffffffffffffffffffffffff19169055565b60008282111561152657fe5b50900390565b600081815260026020526040902054600160a060020a03161561154e57600080fd5b6000818152600260209081526040808320805473ffffffffffffffffffffffffffffffffffffffff1916600160a060020a0387169081179091558352600490915290205461159d906001611229565b600160a060020a0390921660009081526004602052604090209190915550565b600160a060020a03821615156115d257600080fd5b6115dc82826111e0565b6040518190600160a060020a038416906000907fddf252ad1be2c89b69c2b068fc378daa952ba7f163c4a11628f55a4df523b3ef908290a45050565b6000903b1190565b8154818355818111156109d0576000838152602090206109d091810190830161074091905b808211156116595760008155600101611645565b50905600a165627a7a72305820b41487c5992cbbc4b9d05ac410d36bfbadfe05eb3898bd3b322fa7a30170360c0029",
  "source": "pragma solidity ^0.4.23;\n\n\n/// @title E.T.H. (Extreme Time Heroes) Access Contract for beta and main sale\n/// @author Nathan Ginnever\n\n//aimport {HumanStandardToken} from \"./lib/token/HumanStandardToken.sol\";\nimport \"./lib/ownership/Ownable.sol\";\nimport \"./lib/token/CKInterface.sol\";\nimport \"./lib/token/ERC721Token.sol\";\n\ncontract ETHAccess is Ownable, ERC721Token {\n\n  // how long the sale is open for\n  uint256 public betaSaleEnd = 0;\n  uint256 public betaQRTLimit = 10; // 10 for testing, 5000 mainnet\n  uint256 public portalKittyLimit = 5; // 5 for testing, 500 mainnet\n  uint256 public totalPortalKitties = 0;\n  uint256 public QRTprice = 100 finney;\n\n  CKInterface public ck;\n\n  struct Participant {\n    address party;\n    uint256 numPortalKitties;\n  }\n\n  mapping(address => Participant) public participants;\n\n  modifier onlyBeta() {\n    require(now < betaSaleEnd);\n    _;\n  }\n\n  event QRTPurchase(\n    address indexed _from,\n    uint256 indexed _time,\n    uint256 indexed _tokenId\n  );\n\n  event KittiesPortal(\n    address indexed _from,\n    uint256 indexed _time\n  );\n\n  constructor(\n    uint256 betaSaleLength, \n    address _ckAddress, \n    string name, \n    string symbol) \n    public \n    ERC721Token(name, symbol)\n  {\n    betaSaleEnd = betaSaleLength;\n    ck = CKInterface(_ckAddress);\n  }\n\n  function purchaseQRT() public payable {\n    require(msg.value == QRTprice);\n    require(now > betaSaleEnd);\n\n    uint256 _tokenID = totalSupply().add(1);\n\n    participants[msg.sender].party = msg.sender;\n\n    super._mint(msg.sender, _tokenID);\n    emit QRTPurchase(msg.sender, now, _tokenID);\n  }\n\n  function purchaseQRTbeta() onlyBeta public payable {\n    require(msg.value == QRTprice);\n    require(totalSupply() < betaQRTLimit);\n\n    uint256 _tokenID = totalSupply().add(1);\n    participants[msg.sender].party = msg.sender;\n\n    super._mint(msg.sender, _tokenID);\n    emit QRTPurchase(msg.sender, now, _tokenID);\n  }\n\n  function portalCryptoKitties(uint256[10] ids) onlyBeta public {\n    require(ck.balanceOf(msg.sender) >= 10);\n    require(totalPortalKitties <= portalKittyLimit);\n\n    // this assumes client calls an approval for each cryptokitty id\n    for(uint i=0; i<10; i++) {\n      ck.transferFrom(msg.sender, address(this), ids[i]);\n    }\n\n    participants[msg.sender].numPortalKitties = participants[msg.sender].numPortalKitties.add(1);\n    totalPortalKitties = totalPortalKitties.add(1);\n    emit KittiesPortal(msg.sender, now);\n  }\n\n  function withdraw() onlyOwner public {\n    owner.transfer(address(this).balance);\n  }\n}\n",
  "sourcePath": "/home/newton/github/finalitylabs/eth-beta-access-contracts/contracts/ETHAccess.sol",
  "compiler": {
    "name": "solc",
    "version": "0.4.24+commit.e67f0147.Emscripten.clang"
  },
  "schemaVersion": "2.0.1",
  "updatedAt": "2018-07-28T02:35:00.508Z"
}