{
  "contractName": "CKProxy",
  "abi": [
    {
      "constant": false,
      "inputs": [],
      "name": "renounceOwnership",
      "outputs": [],
      "payable": false,
      "stateMutability": "nonpayable",
      "type": "function"
    },
    {
      "constant": true,
      "inputs": [],
      "name": "owner",
      "outputs": [
        {
          "name": "",
          "type": "address"
        }
      ],
      "payable": false,
      "stateMutability": "view",
      "type": "function"
    },
    {
      "constant": true,
      "inputs": [],
      "name": "ckAddress",
      "outputs": [
        {
          "name": "",
          "type": "address"
        }
      ],
      "payable": false,
      "stateMutability": "view",
      "type": "function"
    },
    {
      "constant": false,
      "inputs": [
        {
          "name": "_newOwner",
          "type": "address"
        }
      ],
      "name": "transferOwnership",
      "outputs": [],
      "payable": false,
      "stateMutability": "nonpayable",
      "type": "function"
    },
    {
      "inputs": [
        {
          "name": "_ckAddress",
          "type": "address"
        }
      ],
      "payable": false,
      "stateMutability": "nonpayable",
      "type": "constructor"
    },
    {
      "anonymous": false,
      "inputs": [
        {
          "indexed": true,
          "name": "previousOwner",
          "type": "address"
        }
      ],
      "name": "OwnershipRenounced",
      "type": "event"
    },
    {
      "anonymous": false,
      "inputs": [
        {
          "indexed": true,
          "name": "previousOwner",
          "type": "address"
        },
        {
          "indexed": true,
          "name": "newOwner",
          "type": "address"
        }
      ],
      "name": "OwnershipTransferred",
      "type": "event"
    },
    {
      "constant": false,
      "inputs": [],
      "name": "purchaseQRT",
      "outputs": [],
      "payable": true,
      "stateMutability": "payable",
      "type": "function"
    },
    {
      "constant": false,
      "inputs": [],
      "name": "portalCryptoKitties",
      "outputs": [],
      "payable": false,
      "stateMutability": "nonpayable",
      "type": "function"
    },
    {
      "constant": false,
      "inputs": [],
      "name": "withdraw",
      "outputs": [],
      "payable": false,
      "stateMutability": "nonpayable",
      "type": "function"
    }
  ],
  "bytecode": "0x608060405234801561001057600080fd5b50604051602080610394833981016040525160008054600160a060020a0319908116331790915560018054600160a060020a03909316929091169190911790556103358061005f6000396000f3006080604052600436106100825763ffffffff7c01000000000000000000000000000000000000000000000000000000006000350416632e171c1a81146100875780633ccfd60b1461009e578063715018a6146100b357806371e0e2dc146100c85780638da5cb5b146100d0578063ca4a74ef1461010e578063f2fde38b14610123575b600080fd5b34801561009357600080fd5b5061009c610151565b005b3480156100aa57600080fd5b5061009c610153565b3480156100bf57600080fd5b5061009c610177565b61009c610151565b3480156100dc57600080fd5b506100e56101fd565b6040805173ffffffffffffffffffffffffffffffffffffffff9092168252519081900360200190f35b34801561011a57600080fd5b506100e5610219565b34801561012f57600080fd5b5061009c73ffffffffffffffffffffffffffffffffffffffff60043516610235565b565b60005473ffffffffffffffffffffffffffffffffffffffff16331461015157600080fd5b60005473ffffffffffffffffffffffffffffffffffffffff16331461019b57600080fd5b6000805460405173ffffffffffffffffffffffffffffffffffffffff909116917ff8df31144d9c2f0f6b59d69b8b98abd5459d07f2742c4df920b25aae33c6482091a26000805473ffffffffffffffffffffffffffffffffffffffff19169055565b60005473ffffffffffffffffffffffffffffffffffffffff1681565b60015473ffffffffffffffffffffffffffffffffffffffff1681565b60005473ffffffffffffffffffffffffffffffffffffffff16331461025957600080fd5b61026281610265565b50565b73ffffffffffffffffffffffffffffffffffffffff8116151561028757600080fd5b6000805460405173ffffffffffffffffffffffffffffffffffffffff808516939216917f8be0079c531659141344cd1fd0a4f28419497f9722a3daafe3b4186f6b6457e091a36000805473ffffffffffffffffffffffffffffffffffffffff191673ffffffffffffffffffffffffffffffffffffffff929092169190911790555600a165627a7a723058201ffc3a133e67d3ef96d8be4ded19d92cf22f91026158c9a4dabd897f99a05bdd0029",
  "source": "pragma solidity ^0.4.23;\n\nimport {Ownable} from \"./lib/ownership/Ownable.sol\";\n\ncontract CKProxy is Ownable {\n\n    // how long the sale is open for\n    address public ckAddress;\n\n    constructor(address _ckAddress) public {\n      ckAddress = _ckAddress;\n    }\n\n    function purchaseQRT() public payable {\n\n    }\n\n    function portalCryptoKitties() public {\n\n    }\n\n    function withdraw() onlyOwner {\n\n    }\n}\n",
  "sourcePath": "/Users/voxelot/github/finalitylabs/eth-beta-access-contracts/contracts/CKProxy.sol",
  "compiler": {
    "name": "solc",
    "version": "0.4.24+commit.e67f0147.Emscripten.clang"
  },
  "schemaVersion": "2.0.0",
  "updatedAt": "2018-07-27T17:45:24.127Z"
}