{
  "contractName": "ETHAccess",
  "abi": [
    {
      "constant": true,
      "inputs": [
        {
          "name": "_interfaceId",
          "type": "bytes4"
        }
      ],
      "name": "supportsInterface",
      "outputs": [
        {
          "name": "",
          "type": "bool"
        }
      ],
      "payable": false,
      "stateMutability": "view",
      "type": "function"
    },
    {
      "constant": true,
      "inputs": [],
      "name": "name",
      "outputs": [
        {
          "name": "",
          "type": "string"
        }
      ],
      "payable": false,
      "stateMutability": "view",
      "type": "function"
    },
    {
      "constant": true,
      "inputs": [
        {
          "name": "_tokenId",
          "type": "uint256"
        }
      ],
      "name": "getApproved",
      "outputs": [
        {
          "name": "",
          "type": "address"
        }
      ],
      "payable": false,
      "stateMutability": "view",
      "type": "function"
    },
    {
      "constant": false,
      "inputs": [
        {
          "name": "_to",
          "type": "address"
        },
        {
          "name": "_tokenId",
          "type": "uint256"
        }
      ],
      "name": "approve",
      "outputs": [],
      "payable": false,
      "stateMutability": "nonpayable",
      "type": "function"
    },
    {
      "constant": true,
      "inputs": [
        {
          "name": "",
          "type": "address"
        }
      ],
      "name": "participants",
      "outputs": [
        {
          "name": "party",
          "type": "address"
        },
        {
          "name": "numPortalKitties",
          "type": "uint256"
        }
      ],
      "payable": false,
      "stateMutability": "view",
      "type": "function"
    },
    {
      "constant": true,
      "inputs": [],
      "name": "totalSupply",
      "outputs": [
        {
          "name": "",
          "type": "uint256"
        }
      ],
      "payable": false,
      "stateMutability": "view",
      "type": "function"
    },
    {
      "constant": true,
      "inputs": [],
      "name": "InterfaceId_ERC165",
      "outputs": [
        {
          "name": "",
          "type": "bytes4"
        }
      ],
      "payable": false,
      "stateMutability": "view",
      "type": "function"
    },
    {
      "constant": false,
      "inputs": [
        {
          "name": "_from",
          "type": "address"
        },
        {
          "name": "_to",
          "type": "address"
        },
        {
          "name": "_tokenId",
          "type": "uint256"
        }
      ],
      "name": "transferFrom",
      "outputs": [],
      "payable": false,
      "stateMutability": "nonpayable",
      "type": "function"
    },
    {
      "constant": true,
      "inputs": [],
      "name": "betaQRTLimit",
      "outputs": [
        {
          "name": "",
          "type": "uint256"
        }
      ],
      "payable": false,
      "stateMutability": "view",
      "type": "function"
    },
    {
      "constant": true,
      "inputs": [
        {
          "name": "_owner",
          "type": "address"
        },
        {
          "name": "_index",
          "type": "uint256"
        }
      ],
      "name": "tokenOfOwnerByIndex",
      "outputs": [
        {
          "name": "",
          "type": "uint256"
        }
      ],
      "payable": false,
      "stateMutability": "view",
      "type": "function"
    },
    {
      "constant": true,
      "inputs": [],
      "name": "QRTprice",
      "outputs": [
        {
          "name": "",
          "type": "uint256"
        }
      ],
      "payable": false,
      "stateMutability": "view",
      "type": "function"
    },
    {
      "constant": false,
      "inputs": [
        {
          "name": "_from",
          "type": "address"
        },
        {
          "name": "_to",
          "type": "address"
        },
        {
          "name": "_tokenId",
          "type": "uint256"
        }
      ],
      "name": "safeTransferFrom",
      "outputs": [],
      "payable": false,
      "stateMutability": "nonpayable",
      "type": "function"
    },
    {
      "constant": true,
      "inputs": [
        {
          "name": "_tokenId",
          "type": "uint256"
        }
      ],
      "name": "exists",
      "outputs": [
        {
          "name": "",
          "type": "bool"
        }
      ],
      "payable": false,
      "stateMutability": "view",
      "type": "function"
    },
    {
      "constant": true,
      "inputs": [
        {
          "name": "_index",
          "type": "uint256"
        }
      ],
      "name": "tokenByIndex",
      "outputs": [
        {
          "name": "",
          "type": "uint256"
        }
      ],
      "payable": false,
      "stateMutability": "view",
      "type": "function"
    },
    {
      "constant": true,
      "inputs": [
        {
          "name": "_tokenId",
          "type": "uint256"
        }
      ],
      "name": "ownerOf",
      "outputs": [
        {
          "name": "",
          "type": "address"
        }
      ],
      "payable": false,
      "stateMutability": "view",
      "type": "function"
    },
    {
      "constant": true,
      "inputs": [
        {
          "name": "_owner",
          "type": "address"
        }
      ],
      "name": "balanceOf",
      "outputs": [
        {
          "name": "",
          "type": "uint256"
        }
      ],
      "payable": false,
      "stateMutability": "view",
      "type": "function"
    },
    {
      "constant": false,
      "inputs": [],
      "name": "renounceOwnership",
      "outputs": [],
      "payable": false,
      "stateMutability": "nonpayable",
      "type": "function"
    },
    {
      "constant": true,
      "inputs": [],
      "name": "owner",
      "outputs": [
        {
          "name": "",
          "type": "address"
        }
      ],
      "payable": false,
      "stateMutability": "view",
      "type": "function"
    },
    {
      "constant": true,
      "inputs": [],
      "name": "symbol",
      "outputs": [
        {
          "name": "",
          "type": "string"
        }
      ],
      "payable": false,
      "stateMutability": "view",
      "type": "function"
    },
    {
      "constant": true,
      "inputs": [],
      "name": "totalPortalKitties",
      "outputs": [
        {
          "name": "",
          "type": "uint256"
        }
      ],
      "payable": false,
      "stateMutability": "view",
      "type": "function"
    },
    {
      "constant": false,
      "inputs": [
        {
          "name": "_to",
          "type": "address"
        },
        {
          "name": "_approved",
          "type": "bool"
        }
      ],
      "name": "setApprovalForAll",
      "outputs": [],
      "payable": false,
      "stateMutability": "nonpayable",
      "type": "function"
    },
    {
      "constant": false,
      "inputs": [
        {
          "name": "_from",
          "type": "address"
        },
        {
          "name": "_to",
          "type": "address"
        },
        {
          "name": "_tokenId",
          "type": "uint256"
        },
        {
          "name": "_data",
          "type": "bytes"
        }
      ],
      "name": "safeTransferFrom",
      "outputs": [],
      "payable": false,
      "stateMutability": "nonpayable",
      "type": "function"
    },
    {
      "constant": true,
      "inputs": [
        {
          "name": "_tokenId",
          "type": "uint256"
        }
      ],
      "name": "tokenURI",
      "outputs": [
        {
          "name": "",
          "type": "string"
        }
      ],
      "payable": false,
      "stateMutability": "view",
      "type": "function"
    },
    {
      "constant": true,
      "inputs": [
        {
          "name": "_owner",
          "type": "address"
        },
        {
          "name": "_operator",
          "type": "address"
        }
      ],
      "name": "isApprovedForAll",
      "outputs": [
        {
          "name": "",
          "type": "bool"
        }
      ],
      "payable": false,
      "stateMutability": "view",
      "type": "function"
    },
    {
      "constant": false,
      "inputs": [
        {
          "name": "_newOwner",
          "type": "address"
        }
      ],
      "name": "transferOwnership",
      "outputs": [],
      "payable": false,
      "stateMutability": "nonpayable",
      "type": "function"
    },
    {
      "constant": true,
      "inputs": [],
      "name": "ck",
      "outputs": [
        {
          "name": "",
          "type": "address"
        }
      ],
      "payable": false,
      "stateMutability": "view",
      "type": "function"
    },
    {
      "inputs": [
        {
          "name": "_ckAddress",
          "type": "address"
        },
        {
          "name": "_secureWallet",
          "type": "address"
        },
        {
          "name": "name",
          "type": "string"
        },
        {
          "name": "symbol",
          "type": "string"
        }
      ],
      "payable": false,
      "stateMutability": "nonpayable",
      "type": "constructor"
    },
    {
      "anonymous": false,
      "inputs": [
        {
          "indexed": true,
          "name": "_from",
          "type": "address"
        },
        {
          "indexed": true,
          "name": "_time",
          "type": "uint256"
        },
        {
          "indexed": true,
          "name": "_tokenId",
          "type": "uint256"
        }
      ],
      "name": "QRTPurchase",
      "type": "event"
    },
    {
      "anonymous": false,
      "inputs": [
        {
          "indexed": true,
          "name": "_from",
          "type": "address"
        },
        {
          "indexed": true,
          "name": "_time",
          "type": "uint256"
        }
      ],
      "name": "KittiesPortal",
      "type": "event"
    },
    {
      "anonymous": false,
      "inputs": [
        {
          "indexed": true,
          "name": "_from",
          "type": "address"
        },
        {
          "indexed": true,
          "name": "_to",
          "type": "address"
        },
        {
          "indexed": true,
          "name": "_tokenId",
          "type": "uint256"
        }
      ],
      "name": "Transfer",
      "type": "event"
    },
    {
      "anonymous": false,
      "inputs": [
        {
          "indexed": true,
          "name": "_owner",
          "type": "address"
        },
        {
          "indexed": true,
          "name": "_approved",
          "type": "address"
        },
        {
          "indexed": true,
          "name": "_tokenId",
          "type": "uint256"
        }
      ],
      "name": "Approval",
      "type": "event"
    },
    {
      "anonymous": false,
      "inputs": [
        {
          "indexed": true,
          "name": "_owner",
          "type": "address"
        },
        {
          "indexed": true,
          "name": "_operator",
          "type": "address"
        },
        {
          "indexed": false,
          "name": "_approved",
          "type": "bool"
        }
      ],
      "name": "ApprovalForAll",
      "type": "event"
    },
    {
      "anonymous": false,
      "inputs": [
        {
          "indexed": true,
          "name": "previousOwner",
          "type": "address"
        }
      ],
      "name": "OwnershipRenounced",
      "type": "event"
    },
    {
      "anonymous": false,
      "inputs": [
        {
          "indexed": true,
          "name": "previousOwner",
          "type": "address"
        },
        {
          "indexed": true,
          "name": "newOwner",
          "type": "address"
        }
      ],
      "name": "OwnershipTransferred",
      "type": "event"
    },
    {
      "constant": false,
      "inputs": [],
      "name": "purchaseQRT",
      "outputs": [],
      "payable": true,
      "stateMutability": "payable",
      "type": "function"
    },
    {
      "constant": false,
      "inputs": [
        {
          "name": "id",
          "type": "uint256"
        }
      ],
      "name": "portalKitty",
      "outputs": [],
      "payable": false,
      "stateMutability": "nonpayable",
      "type": "function"
    },
    {
      "constant": false,
      "inputs": [],
      "name": "withdraw",
      "outputs": [],
      "payable": false,
      "stateMutability": "nonpayable",
      "type": "function"
    }
  ],
  "bytecode": "0x6080604052612710600d556000600e556702c68af0bb140000600f553480156200002857600080fd5b5060405162001a5a38038062001a5a8339810160409081528151602083015191830151606084015160008054600160a060020a031916331790559193908101910181816200009f7f01ffc9a700000000000000000000000000000000000000000000000000000000640100000000620001ee810204565b620000d37f80ac58cd00000000000000000000000000000000000000000000000000000000640100000000620001ee810204565b620001077f4f558e7900000000000000000000000000000000000000000000000000000000640100000000620001ee810204565b81516200011c90600690602085019062000426565b5080516200013290600790602084019062000426565b50620001677f780e9d6300000000000000000000000000000000000000000000000000000000640100000000620001ee810204565b6200019b7f5b5e139f00000000000000000000000000000000000000000000000000000000640100000000620001ee810204565b505060008054600160a060020a03808616600160a060020a03199283161783556010805491881691909216179055620001e49084906401000000006200112c6200025e82021704565b50505050620004cb565b7fffffffff0000000000000000000000000000000000000000000000000000000080821614156200021e57600080fd5b7fffffffff00000000000000000000000000000000000000000000000000000000166000908152600160208190526040909120805460ff19169091179055565b620002788282640100000000620014b3620002bd82021704565b600a80546000838152600b60205260408120829055600182018355919091527fc65a7bb8d6351c1cf70c95a316cc6a92839c986682d98bc35f958f4883f9d2a8015550565b600160a060020a0382161515620002d357600080fd5b620002e8828264010000000062000324810204565b6040518190600160a060020a038416906000907fddf252ad1be2c89b69c2b068fc378daa952ba7f163c4a11628f55a4df523b3ef908290a45050565b6000620003408383640100000000620014226200037d82021704565b50600160a060020a039091166000908152600860209081526040808320805460018101825590845282842081018590559383526009909152902055565b600081815260026020526040902054600160a060020a031615620003a057600080fd5b60008181526002602090815260408083208054600160a060020a031916600160a060020a03871690811790915583526004909152902054620003f29060016401000000006200041281026200111f1704565b600160a060020a0390921660009081526004602052604090209190915550565b818101828110156200042057fe5b92915050565b828054600181600116156101000203166002900490600052602060002090601f016020900481019282601f106200046957805160ff191683800117855562000499565b8280016001018555821562000499579182015b82811115620004995782518255916020019190600101906200047c565b50620004a7929150620004ab565b5090565b620004c891905b80821115620004a75760008155600101620004b2565b90565b61157f80620004db6000396000f3006080604052600436106101745763ffffffff7c010000000000000000000000000000000000000000000000000000000060003504166301ffc9a7811461017957806306fdde03146101c4578063081812fc1461024e578063095ea7b31461028257806309e69ede146102a857806318160ddd146102ec57806319fa8f501461031357806323b872dd1461035a5780632aefb19c146103845780632f745c59146103995780633c461c37146103bd5780633ccfd60b146103d257806342842e0e146103e75780634f558e79146104115780634f6ccce7146104295780636352211e1461044157806370a0823114610459578063715018a61461047a57806371e0e2dc1461048f5780638da5cb5b1461049757806395d89b41146104ac5780639a6979cd146104c15780639fd1549e146104d9578063a22cb465146104ee578063b88d4fde14610514578063c87b56dd14610583578063e985e9c51461059b578063f2fde38b146105c2578063f5c901db146105e3575b600080fd5b34801561018557600080fd5b506101b07bffffffffffffffffffffffffffffffffffffffffffffffffffffffff19600435166105f8565b604080519115158252519081900360200190f35b3480156101d057600080fd5b506101d961062c565b6040805160208082528351818301528351919283929083019185019080838360005b838110156102135781810151838201526020016101fb565b50505050905090810190601f1680156102405780820380516001836020036101000a031916815260200191505b509250505060405180910390f35b34801561025a57600080fd5b506102666004356106c3565b60408051600160a060020a039092168252519081900360200190f35b34801561028e57600080fd5b506102a6600160a060020a03600435166024356106de565b005b3480156102b457600080fd5b506102c9600160a060020a0360043516610794565b60408051600160a060020a03909316835260208301919091528051918290030190f35b3480156102f857600080fd5b506103016107b9565b60408051918252519081900360200190f35b34801561031f57600080fd5b506103286107bf565b604080517bffffffffffffffffffffffffffffffffffffffffffffffffffffffff199092168252519081900360200190f35b34801561036657600080fd5b506102a6600160a060020a03600435811690602435166044356107e3565b34801561039057600080fd5b50610301610886565b3480156103a557600080fd5b50610301600160a060020a036004351660243561088c565b3480156103c957600080fd5b506103016108d9565b3480156103de57600080fd5b506102a66108df565b3480156103f357600080fd5b506102a6600160a060020a0360043581169060243516604435610934565b34801561041d57600080fd5b506101b0600435610955565b34801561043557600080fd5b50610301600435610972565b34801561044d57600080fd5b506102666004356109a7565b34801561046557600080fd5b50610301600160a060020a03600435166109d1565b34801561048657600080fd5b506102a6610a04565b6102a6610a70565b3480156104a357600080fd5b50610266610b1a565b3480156104b857600080fd5b506101d9610b29565b3480156104cd57600080fd5b506102a6600435610b8a565b3480156104e557600080fd5b50610301610d3b565b3480156104fa57600080fd5b506102a6600160a060020a03600435166024351515610d41565b34801561052057600080fd5b50604080516020601f6064356004818101359283018490048402850184019095528184526102a694600160a060020a038135811695602480359092169560443595369560849401918190840183828082843750949750610dc59650505050505050565b34801561058f57600080fd5b506101d9600435610ded565b3480156105a757600080fd5b506101b0600160a060020a0360043581169060243516610ea2565b3480156105ce57600080fd5b506102a6600160a060020a0360043516610ed0565b3480156105ef57600080fd5b50610266610ef0565b7bffffffffffffffffffffffffffffffffffffffffffffffffffffffff191660009081526001602052604090205460ff1690565b60068054604080516020601f60026000196101006001881615020190951694909404938401819004810282018101909252828152606093909290918301828280156106b85780601f1061068d576101008083540402835291602001916106b8565b820191906000526020600020905b81548152906001019060200180831161069b57829003601f168201915b505050505090505b90565b600090815260036020526040902054600160a060020a031690565b60006106e9826109a7565b9050600160a060020a03838116908216141561070457600080fd5b33600160a060020a038216148061072057506107208133610ea2565b151561072b57600080fd5b600082815260036020526040808220805473ffffffffffffffffffffffffffffffffffffffff1916600160a060020a0387811691821790925591518593918516917f8c5be1e5ebec7d5bd14f71427d1e84f3dd0314c0f7b2291e5b200ac8c7c3b92591a4505050565b60116020526000908152604090208054600190910154600160a060020a039091169082565b600a5490565b7f01ffc9a70000000000000000000000000000000000000000000000000000000081565b6107ed3382610eff565b15156107f857600080fd5b600160a060020a038316151561080d57600080fd5b600160a060020a038216151561082257600080fd5b61082c8382610f5e565b6108368382610fcf565b61084082826110d6565b8082600160a060020a031684600160a060020a03167fddf252ad1be2c89b69c2b068fc378daa952ba7f163c4a11628f55a4df523b3ef60405160405180910390a4505050565b600d5481565b6000610897836109d1565b82106108a257600080fd5b600160a060020a03831660009081526008602052604090208054839081106108c657fe5b9060005260206000200154905092915050565b600f5481565b600054600160a060020a031633146108f657600080fd5b60008054604051600160a060020a0390911691303180156108fc02929091818181858888f19350505050158015610931573d6000803e3d6000fd5b50565b6109508383836020604051908101604052806000815250610dc5565b505050565b600090815260026020526040902054600160a060020a0316151590565b600061097c6107b9565b821061098757600080fd5b600a80548390811061099557fe5b90600052602060002001549050919050565b600081815260026020526040812054600160a060020a03168015156109cb57600080fd5b92915050565b6000600160a060020a03821615156109e857600080fd5b50600160a060020a031660009081526004602052604090205490565b600054600160a060020a03163314610a1b57600080fd5b60008054604051600160a060020a03909116917ff8df31144d9c2f0f6b59d69b8b98abd5459d07f2742c4df920b25aae33c6482091a26000805473ffffffffffffffffffffffffffffffffffffffff19169055565b600f546000903414610a8157600080fd5b600d54610a8c6107b9565b10610a9657600080fd5b610aaf6001610aa36107b9565b9063ffffffff61111f16565b336000818152601160205260409020805473ffffffffffffffffffffffffffffffffffffffff191682179055909150610ae8908261112c565b6040518190429033907f01bdca7ec6d4840d7481f12f165ab469f9943fa4780125e5429241cbcfc2f2a490600090a450565b600054600160a060020a031681565b60078054604080516020601f60026000196101006001881615020190951694909404938401819004810282018101909252828152606093909290918301828280156106b85780601f1061068d576101008083540402835291602001916106b8565b601054604080517f6352211e0000000000000000000000000000000000000000000000000000000081526004810184905290513392600160a060020a031691636352211e9160248083019260209291908290030181600087803b158015610bf057600080fd5b505af1158015610c04573d6000803e3d6000fd5b505050506040513d6020811015610c1a57600080fd5b5051600160a060020a031614610c2f57600080fd5b601054604080517f23b872dd000000000000000000000000000000000000000000000000000000008152336004820152306024820152604481018490529051600160a060020a03909216916323b872dd9160648082019260009290919082900301818387803b158015610ca157600080fd5b505af1158015610cb5573d6000803e3d6000fd5b5050336000908152601160205260409020600190810154610cde9350915063ffffffff61111f16565b336000908152601160205260409020600190810191909155600e54610d089163ffffffff61111f16565b600e55604051429033907fe61805e2b0dd417d272320bdb786471c411b928644454606bd864d95a0242cae90600090a350565b600e5481565b600160a060020a038216331415610d5757600080fd5b336000818152600560209081526040808320600160a060020a03871680855290835292819020805460ff1916861515908117909155815190815290519293927f17307eab39ab6107e8899845ad3d59bd9653f200f220920489ca2b5937696c31929181900390910190a35050565b610dd08484846107e3565b610ddc8484848461117b565b1515610de757600080fd5b50505050565b6060610df882610955565b1515610e0357600080fd5b6000828152600c602090815260409182902080548351601f600260001961010060018616150201909316929092049182018490048402810184019094528084529091830182828015610e965780601f10610e6b57610100808354040283529160200191610e96565b820191906000526020600020905b815481529060010190602001808311610e7957829003601f168201915b50505050509050919050565b600160a060020a03918216600090815260056020908152604080832093909416825291909152205460ff1690565b600054600160a060020a03163314610ee757600080fd5b610931816112fd565b601054600160a060020a031681565b600080610f0b836109a7565b905080600160a060020a031684600160a060020a03161480610f46575083600160a060020a0316610f3b846106c3565b600160a060020a0316145b80610f565750610f568185610ea2565b949350505050565b81600160a060020a0316610f71826109a7565b600160a060020a031614610f8457600080fd5b600081815260036020526040902054600160a060020a031615610fcb576000818152600360205260409020805473ffffffffffffffffffffffffffffffffffffffff191690555b5050565b6000806000610fde858561137a565b600084815260096020908152604080832054600160a060020a038916845260089092529091205490935061101990600163ffffffff61141016565b600160a060020a03861660009081526008602052604090208054919350908390811061104157fe5b90600052602060002001549050806008600087600160a060020a0316600160a060020a031681526020019081526020016000208481548110151561108157fe5b6000918252602080832090910192909255600160a060020a03871681526008909152604090208054906110b8906000198301611516565b50600093845260096020526040808520859055908452909220555050565b60006110e28383611422565b50600160a060020a039091166000908152600860209081526040808320805460018101825590845282842081018590559383526009909152902055565b818101828110156109cb57fe5b61113682826114b3565b600a80546000838152600b60205260408120829055600182018355919091527fc65a7bb8d6351c1cf70c95a316cc6a92839c986682d98bc35f958f4883f9d2a8015550565b60008061119085600160a060020a031661150e565b151561119f57600191506112f4565b6040517f150b7a020000000000000000000000000000000000000000000000000000000081523360048201818152600160a060020a03898116602485015260448401889052608060648501908152875160848601528751918a169463150b7a0294938c938b938b93909160a490910190602085019080838360005b8381101561123257818101518382015260200161121a565b50505050905090810190601f16801561125f5780820380516001836020036101000a031916815260200191505b5095505050505050602060405180830381600087803b15801561128157600080fd5b505af1158015611295573d6000803e3d6000fd5b505050506040513d60208110156112ab57600080fd5b50517bffffffffffffffffffffffffffffffffffffffffffffffffffffffff1981167f150b7a020000000000000000000000000000000000000000000000000000000014925090505b50949350505050565b600160a060020a038116151561131257600080fd5b60008054604051600160a060020a03808516939216917f8be0079c531659141344cd1fd0a4f28419497f9722a3daafe3b4186f6b6457e091a36000805473ffffffffffffffffffffffffffffffffffffffff1916600160a060020a0392909216919091179055565b81600160a060020a031661138d826109a7565b600160a060020a0316146113a057600080fd5b600160a060020a0382166000908152600460205260409020546113ca90600163ffffffff61141016565b600160a060020a03909216600090815260046020908152604080832094909455918152600290915220805473ffffffffffffffffffffffffffffffffffffffff19169055565b60008282111561141c57fe5b50900390565b600081815260026020526040902054600160a060020a03161561144457600080fd5b6000818152600260209081526040808320805473ffffffffffffffffffffffffffffffffffffffff1916600160a060020a0387169081179091558352600490915290205461149390600161111f565b600160a060020a0390921660009081526004602052604090209190915550565b600160a060020a03821615156114c857600080fd5b6114d282826110d6565b6040518190600160a060020a038416906000907fddf252ad1be2c89b69c2b068fc378daa952ba7f163c4a11628f55a4df523b3ef908290a45050565b6000903b1190565b815481835581811115610950576000838152602090206109509181019083016106c091905b8082111561154f576000815560010161153b565b50905600a165627a7a723058205d28a9722005b4f6c0bd54018157620b0603e327d0f2a0a4ff17921b1166db6d0029",
  "source": "pragma solidity ^0.4.23;\n\n\n/// @title E.T.H. (Extreme Time Heroes) Access Contract for beta and main sale\n/// @author Nathan Ginnever\n\nimport \"./lib/ownership/Ownable.sol\";\nimport \"./lib/token/CKInterface.sol\";\nimport \"./lib/token/ERC721Token.sol\";\n\ncontract ETHAccess is Ownable, ERC721Token {\n\n  uint256 public betaQRTLimit = 10000; // 10 for testing, 10000 mainnet\n  uint256 public totalPortalKitties = 0;\n  uint256 public QRTprice = 200 finney;\n\n  CKInterface public ck;\n\n  struct Participant {\n    address party;\n    uint256 numPortalKitties;\n  }\n\n  // we can use this mapping to allow kitty depositers to claim an E.T.H. fighter NFT in the future\n  mapping(address => Participant) public participants;\n\n  event QRTPurchase(\n    address indexed _from,\n    uint256 indexed _time,\n    uint256 indexed _tokenId\n  );\n\n  event KittiesPortal(\n    address indexed _from,\n    uint256 indexed _time\n  );\n\n  constructor(\n    address _ckAddress,\n    address _secureWallet,\n    string name, \n    string symbol) \n    public \n    ERC721Token(name, symbol)\n  {\n    owner = _secureWallet;\n    ck = CKInterface(_ckAddress);\n    super._mint(_secureWallet, 0);\n  }\n\n  function purchaseQRT() public payable {\n    require(msg.value == QRTprice);\n    require(totalSupply() < betaQRTLimit);\n\n    uint256 _tokenID = totalSupply().add(1);\n\n    participants[msg.sender].party = msg.sender;\n\n    super._mint(msg.sender, _tokenID);\n    emit QRTPurchase(msg.sender, now, _tokenID);\n  }\n\n  function portalKitty(uint256 id) public {\n    require(ck.ownerOf(id) == msg.sender);\n\n    // this assumes client calls an approval for each cryptokitty id\n    ck.transferFrom(msg.sender, address(this), id);\n\n    participants[msg.sender].numPortalKitties = participants[msg.sender].numPortalKitties.add(1);\n    totalPortalKitties = totalPortalKitties.add(1);\n    emit KittiesPortal(msg.sender, now);\n  }\n\n  function withdraw() onlyOwner public {\n    owner.transfer(address(this).balance);\n  }\n}\n",
  "sourcePath": "/Users/voxelot/github/finalitylabs/eth-beta-access-contracts/contracts/EthAccess.sol",
  "compiler": {
    "name": "solc",
    "version": "0.4.24+commit.e67f0147.Emscripten.clang"
  },
  "schemaVersion": "2.0.0",
  "updatedAt": "2018-11-06T13:21:40.927Z"
}