{
  "contractName": "ETHAccess",
  "abi": [
    {
      "constant": true,
      "inputs": [
        {
          "name": "_interfaceId",
          "type": "bytes4"
        }
      ],
      "name": "supportsInterface",
      "outputs": [
        {
          "name": "",
          "type": "bool"
        }
      ],
      "payable": false,
      "stateMutability": "view",
      "type": "function"
    },
    {
      "constant": true,
      "inputs": [],
      "name": "name",
      "outputs": [
        {
          "name": "",
          "type": "string"
        }
      ],
      "payable": false,
      "stateMutability": "view",
      "type": "function"
    },
    {
      "constant": true,
      "inputs": [
        {
          "name": "_tokenId",
          "type": "uint256"
        }
      ],
      "name": "getApproved",
      "outputs": [
        {
          "name": "",
          "type": "address"
        }
      ],
      "payable": false,
      "stateMutability": "view",
      "type": "function"
    },
    {
      "constant": false,
      "inputs": [
        {
          "name": "_to",
          "type": "address"
        },
        {
          "name": "_tokenId",
          "type": "uint256"
        }
      ],
      "name": "approve",
      "outputs": [],
      "payable": false,
      "stateMutability": "nonpayable",
      "type": "function"
    },
    {
      "constant": true,
      "inputs": [
        {
          "name": "",
          "type": "address"
        }
      ],
      "name": "participants",
      "outputs": [
        {
          "name": "party",
          "type": "address"
        },
        {
          "name": "numPortalKitties",
          "type": "uint256"
        }
      ],
      "payable": false,
      "stateMutability": "view",
      "type": "function"
    },
    {
      "constant": true,
      "inputs": [],
      "name": "totalSupply",
      "outputs": [
        {
          "name": "",
          "type": "uint256"
        }
      ],
      "payable": false,
      "stateMutability": "view",
      "type": "function"
    },
    {
      "constant": true,
      "inputs": [],
      "name": "InterfaceId_ERC165",
      "outputs": [
        {
          "name": "",
          "type": "bytes4"
        }
      ],
      "payable": false,
      "stateMutability": "view",
      "type": "function"
    },
    {
      "constant": false,
      "inputs": [
        {
          "name": "_from",
          "type": "address"
        },
        {
          "name": "_to",
          "type": "address"
        },
        {
          "name": "_tokenId",
          "type": "uint256"
        }
      ],
      "name": "transferFrom",
      "outputs": [],
      "payable": false,
      "stateMutability": "nonpayable",
      "type": "function"
    },
    {
      "constant": true,
      "inputs": [],
      "name": "betaQRTLimit",
      "outputs": [
        {
          "name": "",
          "type": "uint256"
        }
      ],
      "payable": false,
      "stateMutability": "view",
      "type": "function"
    },
    {
      "constant": true,
      "inputs": [
        {
          "name": "_owner",
          "type": "address"
        },
        {
          "name": "_index",
          "type": "uint256"
        }
      ],
      "name": "tokenOfOwnerByIndex",
      "outputs": [
        {
          "name": "",
          "type": "uint256"
        }
      ],
      "payable": false,
      "stateMutability": "view",
      "type": "function"
    },
    {
      "constant": true,
      "inputs": [],
      "name": "QRTprice",
      "outputs": [
        {
          "name": "",
          "type": "uint256"
        }
      ],
      "payable": false,
      "stateMutability": "view",
      "type": "function"
    },
    {
      "constant": false,
      "inputs": [
        {
          "name": "_from",
          "type": "address"
        },
        {
          "name": "_to",
          "type": "address"
        },
        {
          "name": "_tokenId",
          "type": "uint256"
        }
      ],
      "name": "safeTransferFrom",
      "outputs": [],
      "payable": false,
      "stateMutability": "nonpayable",
      "type": "function"
    },
    {
      "constant": true,
      "inputs": [],
      "name": "betaSaleEnd",
      "outputs": [
        {
          "name": "",
          "type": "uint256"
        }
      ],
      "payable": false,
      "stateMutability": "view",
      "type": "function"
    },
    {
      "constant": true,
      "inputs": [
        {
          "name": "_tokenId",
          "type": "uint256"
        }
      ],
      "name": "exists",
      "outputs": [
        {
          "name": "",
          "type": "bool"
        }
      ],
      "payable": false,
      "stateMutability": "view",
      "type": "function"
    },
    {
      "constant": true,
      "inputs": [
        {
          "name": "_index",
          "type": "uint256"
        }
      ],
      "name": "tokenByIndex",
      "outputs": [
        {
          "name": "",
          "type": "uint256"
        }
      ],
      "payable": false,
      "stateMutability": "view",
      "type": "function"
    },
    {
      "constant": true,
      "inputs": [
        {
          "name": "_tokenId",
          "type": "uint256"
        }
      ],
      "name": "ownerOf",
      "outputs": [
        {
          "name": "",
          "type": "address"
        }
      ],
      "payable": false,
      "stateMutability": "view",
      "type": "function"
    },
    {
      "constant": true,
      "inputs": [
        {
          "name": "_owner",
          "type": "address"
        }
      ],
      "name": "balanceOf",
      "outputs": [
        {
          "name": "",
          "type": "uint256"
        }
      ],
      "payable": false,
      "stateMutability": "view",
      "type": "function"
    },
    {
      "constant": false,
      "inputs": [],
      "name": "renounceOwnership",
      "outputs": [],
      "payable": false,
      "stateMutability": "nonpayable",
      "type": "function"
    },
    {
      "constant": true,
      "inputs": [],
      "name": "portalKittyLimit",
      "outputs": [
        {
          "name": "",
          "type": "uint256"
        }
      ],
      "payable": false,
      "stateMutability": "view",
      "type": "function"
    },
    {
      "constant": true,
      "inputs": [],
      "name": "owner",
      "outputs": [
        {
          "name": "",
          "type": "address"
        }
      ],
      "payable": false,
      "stateMutability": "view",
      "type": "function"
    },
    {
      "constant": true,
      "inputs": [],
      "name": "symbol",
      "outputs": [
        {
          "name": "",
          "type": "string"
        }
      ],
      "payable": false,
      "stateMutability": "view",
      "type": "function"
    },
    {
      "constant": true,
      "inputs": [],
      "name": "totalPortalKitties",
      "outputs": [
        {
          "name": "",
          "type": "uint256"
        }
      ],
      "payable": false,
      "stateMutability": "view",
      "type": "function"
    },
    {
      "constant": false,
      "inputs": [
        {
          "name": "_to",
          "type": "address"
        },
        {
          "name": "_approved",
          "type": "bool"
        }
      ],
      "name": "setApprovalForAll",
      "outputs": [],
      "payable": false,
      "stateMutability": "nonpayable",
      "type": "function"
    },
    {
      "constant": false,
      "inputs": [
        {
          "name": "_from",
          "type": "address"
        },
        {
          "name": "_to",
          "type": "address"
        },
        {
          "name": "_tokenId",
          "type": "uint256"
        },
        {
          "name": "_data",
          "type": "bytes"
        }
      ],
      "name": "safeTransferFrom",
      "outputs": [],
      "payable": false,
      "stateMutability": "nonpayable",
      "type": "function"
    },
    {
      "constant": true,
      "inputs": [
        {
          "name": "_tokenId",
          "type": "uint256"
        }
      ],
      "name": "tokenURI",
      "outputs": [
        {
          "name": "",
          "type": "string"
        }
      ],
      "payable": false,
      "stateMutability": "view",
      "type": "function"
    },
    {
      "constant": true,
      "inputs": [
        {
          "name": "_owner",
          "type": "address"
        },
        {
          "name": "_operator",
          "type": "address"
        }
      ],
      "name": "isApprovedForAll",
      "outputs": [
        {
          "name": "",
          "type": "bool"
        }
      ],
      "payable": false,
      "stateMutability": "view",
      "type": "function"
    },
    {
      "constant": false,
      "inputs": [
        {
          "name": "_newOwner",
          "type": "address"
        }
      ],
      "name": "transferOwnership",
      "outputs": [],
      "payable": false,
      "stateMutability": "nonpayable",
      "type": "function"
    },
    {
      "constant": true,
      "inputs": [],
      "name": "ck",
      "outputs": [
        {
          "name": "",
          "type": "address"
        }
      ],
      "payable": false,
      "stateMutability": "view",
      "type": "function"
    },
    {
      "inputs": [
        {
          "name": "betaSaleLength",
          "type": "uint256"
        },
        {
          "name": "_ckAddress",
          "type": "address"
        },
        {
          "name": "name",
          "type": "string"
        },
        {
          "name": "symbol",
          "type": "string"
        }
      ],
      "payable": false,
      "stateMutability": "nonpayable",
      "type": "constructor"
    },
    {
      "anonymous": false,
      "inputs": [
        {
          "indexed": true,
          "name": "_from",
          "type": "address"
        },
        {
          "indexed": true,
          "name": "_time",
          "type": "uint256"
        },
        {
          "indexed": true,
          "name": "_tokenId",
          "type": "uint256"
        }
      ],
      "name": "QRTPurchase",
      "type": "event"
    },
    {
      "anonymous": false,
      "inputs": [
        {
          "indexed": true,
          "name": "_from",
          "type": "address"
        },
        {
          "indexed": true,
          "name": "_time",
          "type": "uint256"
        }
      ],
      "name": "KittiesPortal",
      "type": "event"
    },
    {
      "anonymous": false,
      "inputs": [
        {
          "indexed": true,
          "name": "_from",
          "type": "address"
        },
        {
          "indexed": true,
          "name": "_to",
          "type": "address"
        },
        {
          "indexed": true,
          "name": "_tokenId",
          "type": "uint256"
        }
      ],
      "name": "Transfer",
      "type": "event"
    },
    {
      "anonymous": false,
      "inputs": [
        {
          "indexed": true,
          "name": "_owner",
          "type": "address"
        },
        {
          "indexed": true,
          "name": "_approved",
          "type": "address"
        },
        {
          "indexed": true,
          "name": "_tokenId",
          "type": "uint256"
        }
      ],
      "name": "Approval",
      "type": "event"
    },
    {
      "anonymous": false,
      "inputs": [
        {
          "indexed": true,
          "name": "_owner",
          "type": "address"
        },
        {
          "indexed": true,
          "name": "_operator",
          "type": "address"
        },
        {
          "indexed": false,
          "name": "_approved",
          "type": "bool"
        }
      ],
      "name": "ApprovalForAll",
      "type": "event"
    },
    {
      "anonymous": false,
      "inputs": [
        {
          "indexed": true,
          "name": "previousOwner",
          "type": "address"
        }
      ],
      "name": "OwnershipRenounced",
      "type": "event"
    },
    {
      "anonymous": false,
      "inputs": [
        {
          "indexed": true,
          "name": "previousOwner",
          "type": "address"
        },
        {
          "indexed": true,
          "name": "newOwner",
          "type": "address"
        }
      ],
      "name": "OwnershipTransferred",
      "type": "event"
    },
    {
      "constant": false,
      "inputs": [],
      "name": "purchaseQRT",
      "outputs": [],
      "payable": true,
      "stateMutability": "payable",
      "type": "function"
    },
    {
      "constant": false,
      "inputs": [],
      "name": "purchaseQRTbeta",
      "outputs": [],
      "payable": true,
      "stateMutability": "payable",
      "type": "function"
    },
    {
      "constant": false,
      "inputs": [
        {
          "name": "id",
          "type": "uint256"
        }
      ],
      "name": "portalKitty",
      "outputs": [],
      "payable": false,
      "stateMutability": "nonpayable",
      "type": "function"
    },
    {
      "constant": false,
      "inputs": [],
      "name": "withdraw",
      "outputs": [],
      "payable": false,
      "stateMutability": "nonpayable",
      "type": "function"
    }
  ],
  "bytecode": "0x60806040526000600d55600a600e556005600f55600060105567016345785d8a00006011553480156200003157600080fd5b5060405162001923380380620019238339810160409081528151602083015191830151606084015160008054600160a060020a03191633179055919390810191018181620000a87f01ffc9a700000000000000000000000000000000000000000000000000000000640100000000620001d4810204565b620000dc7f80ac58cd00000000000000000000000000000000000000000000000000000000640100000000620001d4810204565b620001107f4f558e7900000000000000000000000000000000000000000000000000000000640100000000620001d4810204565b81516200012590600690602085019062000244565b5080516200013b90600790602084019062000244565b50620001707f780e9d6300000000000000000000000000000000000000000000000000000000640100000000620001d4810204565b620001a47f5b5e139f00000000000000000000000000000000000000000000000000000000640100000000620001d4810204565b505050600d9290925560128054600160a060020a031916600160a060020a039290921691909117905550620002e9565b7fffffffff0000000000000000000000000000000000000000000000000000000080821614156200020457600080fd5b7fffffffff00000000000000000000000000000000000000000000000000000000166000908152600160208190526040909120805460ff19169091179055565b828054600181600116156101000203166002900490600052602060002090601f016020900481019282601f106200028757805160ff1916838001178555620002b7565b82800160010185558215620002b7579182015b82811115620002b75782518255916020019190600101906200029a565b50620002c5929150620002c9565b5090565b620002e691905b80821115620002c55760008155600101620002d0565b90565b61162a80620002f96000396000f3006080604052600436106101955763ffffffff7c010000000000000000000000000000000000000000000000000000000060003504166301ffc9a7811461019a57806306fdde03146101e5578063081812fc1461026f578063095ea7b3146102a357806309e69ede146102c957806318160ddd1461030d57806319fa8f501461033457806323b872dd1461037b5780632aefb19c146103a55780632f745c59146103ba5780633c461c37146103de5780633ccfd60b146103f357806342842e0e146104085780634b4a5f42146104325780634f558e79146104475780634f6ccce71461045f5780636352211e1461047757806370a082311461048f578063715018a6146104b057806371e0e2dc146104c557806377397a45146104cd5780638da5cb5b146104e25780638e377dc6146104f757806395d89b41146104ff5780639a6979cd146105145780639fd1549e1461052c578063a22cb46514610541578063b88d4fde14610567578063c87b56dd146105d6578063e985e9c5146105ee578063f2fde38b14610615578063f5c901db14610636575b600080fd5b3480156101a657600080fd5b506101d17bffffffffffffffffffffffffffffffffffffffffffffffffffffffff196004351661064b565b604080519115158252519081900360200190f35b3480156101f157600080fd5b506101fa61067f565b6040805160208082528351818301528351919283929083019185019080838360005b8381101561023457818101518382015260200161021c565b50505050905090810190601f1680156102615780820380516001836020036101000a031916815260200191505b509250505060405180910390f35b34801561027b57600080fd5b50610287600435610716565b60408051600160a060020a039092168252519081900360200190f35b3480156102af57600080fd5b506102c7600160a060020a0360043516602435610731565b005b3480156102d557600080fd5b506102ea600160a060020a03600435166107e7565b60408051600160a060020a03909316835260208301919091528051918290030190f35b34801561031957600080fd5b5061032261080c565b60408051918252519081900360200190f35b34801561034057600080fd5b50610349610812565b604080517bffffffffffffffffffffffffffffffffffffffffffffffffffffffff199092168252519081900360200190f35b34801561038757600080fd5b506102c7600160a060020a0360043581169060243516604435610836565b3480156103b157600080fd5b506103226108d9565b3480156103c657600080fd5b50610322600160a060020a03600435166024356108df565b3480156103ea57600080fd5b5061032261092c565b3480156103ff57600080fd5b506102c7610932565b34801561041457600080fd5b506102c7600160a060020a0360043581169060243516604435610987565b34801561043e57600080fd5b506103226109a8565b34801561045357600080fd5b506101d16004356109ae565b34801561046b57600080fd5b506103226004356109cb565b34801561048357600080fd5b50610287600435610a00565b34801561049b57600080fd5b50610322600160a060020a0360043516610a2a565b3480156104bc57600080fd5b506102c7610a5d565b6102c7610ac9565b3480156104d957600080fd5b50610322610b6c565b3480156104ee57600080fd5b50610287610b72565b6102c7610b81565b34801561050b57600080fd5b506101fa610bb5565b34801561052057600080fd5b506102c7600435610c16565b34801561053857600080fd5b50610322610de6565b34801561054d57600080fd5b506102c7600160a060020a03600435166024351515610dec565b34801561057357600080fd5b50604080516020601f6064356004818101359283018490048402850184019095528184526102c794600160a060020a038135811695602480359092169560443595369560849401918190840183828082843750949750610e709650505050505050565b3480156105e257600080fd5b506101fa600435610e98565b3480156105fa57600080fd5b506101d1600160a060020a0360043581169060243516610f4d565b34801561062157600080fd5b506102c7600160a060020a0360043516610f7b565b34801561064257600080fd5b50610287610f9b565b7bffffffffffffffffffffffffffffffffffffffffffffffffffffffff191660009081526001602052604090205460ff1690565b60068054604080516020601f600260001961010060018816150201909516949094049384018190048102820181019092528281526060939092909183018282801561070b5780601f106106e05761010080835404028352916020019161070b565b820191906000526020600020905b8154815290600101906020018083116106ee57829003601f168201915b505050505090505b90565b600090815260036020526040902054600160a060020a031690565b600061073c82610a00565b9050600160a060020a03838116908216141561075757600080fd5b33600160a060020a038216148061077357506107738133610f4d565b151561077e57600080fd5b600082815260036020526040808220805473ffffffffffffffffffffffffffffffffffffffff1916600160a060020a0387811691821790925591518593918516917f8c5be1e5ebec7d5bd14f71427d1e84f3dd0314c0f7b2291e5b200ac8c7c3b92591a4505050565b60136020526000908152604090208054600190910154600160a060020a039091169082565b600a5490565b7f01ffc9a70000000000000000000000000000000000000000000000000000000081565b6108403382610faa565b151561084b57600080fd5b600160a060020a038316151561086057600080fd5b600160a060020a038216151561087557600080fd5b61087f8382611009565b610889838261107a565b6108938282611181565b8082600160a060020a031684600160a060020a03167fddf252ad1be2c89b69c2b068fc378daa952ba7f163c4a11628f55a4df523b3ef60405160405180910390a4505050565b600e5481565b60006108ea83610a2a565b82106108f557600080fd5b600160a060020a038316600090815260086020526040902080548390811061091957fe5b9060005260206000200154905092915050565b60115481565b600054600160a060020a0316331461094957600080fd5b60008054604051600160a060020a0390911691303180156108fc02929091818181858888f19350505050158015610984573d6000803e3d6000fd5b50565b6109a38383836020604051908101604052806000815250610e70565b505050565b600d5481565b600090815260026020526040902054600160a060020a0316151590565b60006109d561080c565b82106109e057600080fd5b600a8054839081106109ee57fe5b90600052602060002001549050919050565b600081815260026020526040812054600160a060020a0316801515610a2457600080fd5b92915050565b6000600160a060020a0382161515610a4157600080fd5b50600160a060020a031660009081526004602052604090205490565b600054600160a060020a03163314610a7457600080fd5b60008054604051600160a060020a03909116917ff8df31144d9c2f0f6b59d69b8b98abd5459d07f2742c4df920b25aae33c6482091a26000805473ffffffffffffffffffffffffffffffffffffffff19169055565b6011546000903414610ada57600080fd5b600d544211610ae857600080fd5b610b016001610af561080c565b9063ffffffff6111ca16565b336000818152601360205260409020805473ffffffffffffffffffffffffffffffffffffffff191682179055909150610b3a90826111d7565b6040518190429033907f01bdca7ec6d4840d7481f12f165ab469f9943fa4780125e5429241cbcfc2f2a490600090a450565b600f5481565b600054600160a060020a031681565b600d546000904210610b9257600080fd5b6011543414610ba057600080fd5b600e54610bab61080c565b10610ae857600080fd5b60078054604080516020601f600260001961010060018816150201909516949094049384018190048102820181019092528281526060939092909183018282801561070b5780601f106106e05761010080835404028352916020019161070b565b600d544210610c2457600080fd5b601254604080517f6352211e0000000000000000000000000000000000000000000000000000000081526004810184905290513392600160a060020a031691636352211e9160248083019260209291908290030181600087803b158015610c8a57600080fd5b505af1158015610c9e573d6000803e3d6000fd5b505050506040513d6020811015610cb457600080fd5b5051600160a060020a031614610cc957600080fd5b600f546010541115610cda57600080fd5b601254604080517f23b872dd000000000000000000000000000000000000000000000000000000008152336004820152306024820152604481018490529051600160a060020a03909216916323b872dd9160648082019260009290919082900301818387803b158015610d4c57600080fd5b505af1158015610d60573d6000803e3d6000fd5b5050336000908152601360205260409020600190810154610d899350915063ffffffff6111ca16565b336000908152601360205260409020600190810191909155601054610db39163ffffffff6111ca16565b601055604051429033907fe61805e2b0dd417d272320bdb786471c411b928644454606bd864d95a0242cae90600090a350565b60105481565b600160a060020a038216331415610e0257600080fd5b336000818152600560209081526040808320600160a060020a03871680855290835292819020805460ff1916861515908117909155815190815290519293927f17307eab39ab6107e8899845ad3d59bd9653f200f220920489ca2b5937696c31929181900390910190a35050565b610e7b848484610836565b610e8784848484611226565b1515610e9257600080fd5b50505050565b6060610ea3826109ae565b1515610eae57600080fd5b6000828152600c602090815260409182902080548351601f600260001961010060018616150201909316929092049182018490048402810184019094528084529091830182828015610f415780601f10610f1657610100808354040283529160200191610f41565b820191906000526020600020905b815481529060010190602001808311610f2457829003601f168201915b50505050509050919050565b600160a060020a03918216600090815260056020908152604080832093909416825291909152205460ff1690565b600054600160a060020a03163314610f9257600080fd5b610984816113a8565b601254600160a060020a031681565b600080610fb683610a00565b905080600160a060020a031684600160a060020a03161480610ff1575083600160a060020a0316610fe684610716565b600160a060020a0316145b8061100157506110018185610f4d565b949350505050565b81600160a060020a031661101c82610a00565b600160a060020a03161461102f57600080fd5b600081815260036020526040902054600160a060020a031615611076576000818152600360205260409020805473ffffffffffffffffffffffffffffffffffffffff191690555b5050565b60008060006110898585611425565b600084815260096020908152604080832054600160a060020a03891684526008909252909120549093506110c490600163ffffffff6114bb16565b600160a060020a0386166000908152600860205260409020805491935090839081106110ec57fe5b90600052602060002001549050806008600087600160a060020a0316600160a060020a031681526020019081526020016000208481548110151561112c57fe5b6000918252602080832090910192909255600160a060020a03871681526008909152604090208054906111639060001983016115c1565b50600093845260096020526040808520859055908452909220555050565b600061118d83836114cd565b50600160a060020a039091166000908152600860209081526040808320805460018101825590845282842081018590559383526009909152902055565b81810182811015610a2457fe5b6111e1828261155e565b600a80546000838152600b60205260408120829055600182018355919091527fc65a7bb8d6351c1cf70c95a316cc6a92839c986682d98bc35f958f4883f9d2a8015550565b60008061123b85600160a060020a03166115b9565b151561124a576001915061139f565b6040517f150b7a020000000000000000000000000000000000000000000000000000000081523360048201818152600160a060020a03898116602485015260448401889052608060648501908152875160848601528751918a169463150b7a0294938c938b938b93909160a490910190602085019080838360005b838110156112dd5781810151838201526020016112c5565b50505050905090810190601f16801561130a5780820380516001836020036101000a031916815260200191505b5095505050505050602060405180830381600087803b15801561132c57600080fd5b505af1158015611340573d6000803e3d6000fd5b505050506040513d602081101561135657600080fd5b50517bffffffffffffffffffffffffffffffffffffffffffffffffffffffff1981167f150b7a020000000000000000000000000000000000000000000000000000000014925090505b50949350505050565b600160a060020a03811615156113bd57600080fd5b60008054604051600160a060020a03808516939216917f8be0079c531659141344cd1fd0a4f28419497f9722a3daafe3b4186f6b6457e091a36000805473ffffffffffffffffffffffffffffffffffffffff1916600160a060020a0392909216919091179055565b81600160a060020a031661143882610a00565b600160a060020a03161461144b57600080fd5b600160a060020a03821660009081526004602052604090205461147590600163ffffffff6114bb16565b600160a060020a03909216600090815260046020908152604080832094909455918152600290915220805473ffffffffffffffffffffffffffffffffffffffff19169055565b6000828211156114c757fe5b50900390565b600081815260026020526040902054600160a060020a0316156114ef57600080fd5b6000818152600260209081526040808320805473ffffffffffffffffffffffffffffffffffffffff1916600160a060020a0387169081179091558352600490915290205461153e9060016111ca565b600160a060020a0390921660009081526004602052604090209190915550565b600160a060020a038216151561157357600080fd5b61157d8282611181565b6040518190600160a060020a038416906000907fddf252ad1be2c89b69c2b068fc378daa952ba7f163c4a11628f55a4df523b3ef908290a45050565b6000903b1190565b8154818355818111156109a3576000838152602090206109a391810190830161071391905b808211156115fa57600081556001016115e6565b50905600a165627a7a7230582038574951c3d9f72ed22891c53cf7f8675e28254656025aaa50d664428af960370029",
  "source": "pragma solidity ^0.4.23;\n\n\n/// @title E.T.H. (Extreme Time Heroes) Access Contract for beta and main sale\n/// @author Nathan Ginnever\n\n//aimport {HumanStandardToken} from \"./lib/token/HumanStandardToken.sol\";\nimport \"./lib/ownership/Ownable.sol\";\nimport \"./lib/token/CKInterface.sol\";\nimport \"./lib/token/ERC721Token.sol\";\n\ncontract ETHAccess is Ownable, ERC721Token {\n\n  // how long the sale is open for\n  uint256 public betaSaleEnd = 0;\n  uint256 public betaQRTLimit = 10; // 10 for testing, 5000 mainnet\n  uint256 public portalKittyLimit = 5; // 5 for testing, 500 mainnet\n  uint256 public totalPortalKitties = 0;\n  uint256 public QRTprice = 100 finney;\n\n  CKInterface public ck;\n\n  struct Participant {\n    address party;\n    uint256 numPortalKitties;\n  }\n\n  // we can use this mapping to allow kitty depositers to claim an E.T.H. fighter NFT in the future\n  mapping(address => Participant) public participants;\n\n  modifier onlyBeta() {\n    require(now < betaSaleEnd);\n    _;\n  }\n\n  event QRTPurchase(\n    address indexed _from,\n    uint256 indexed _time,\n    uint256 indexed _tokenId\n  );\n\n  event KittiesPortal(\n    address indexed _from,\n    uint256 indexed _time\n  );\n\n  constructor(\n    uint256 betaSaleLength, \n    address _ckAddress, \n    string name, \n    string symbol) \n    public \n    ERC721Token(name, symbol)\n  {\n    betaSaleEnd = betaSaleLength;\n    ck = CKInterface(_ckAddress);\n  }\n\n  function purchaseQRT() public payable {\n    require(msg.value == QRTprice);\n    require(now > betaSaleEnd);\n\n    uint256 _tokenID = totalSupply().add(1);\n\n    participants[msg.sender].party = msg.sender;\n\n    super._mint(msg.sender, _tokenID);\n    emit QRTPurchase(msg.sender, now, _tokenID);\n  }\n\n  function purchaseQRTbeta() onlyBeta public payable {\n    require(msg.value == QRTprice);\n    require(totalSupply() < betaQRTLimit);\n\n    uint256 _tokenID = totalSupply().add(1);\n    participants[msg.sender].party = msg.sender;\n\n    super._mint(msg.sender, _tokenID);\n    emit QRTPurchase(msg.sender, now, _tokenID);\n  }\n\n  function portalKitty(uint256 id) onlyBeta public {\n    require(ck.ownerOf(id) == msg.sender);\n    require(totalPortalKitties <= portalKittyLimit);\n\n    // this assumes client calls an approval for each cryptokitty id\n    ck.transferFrom(msg.sender, address(this), id);\n\n    participants[msg.sender].numPortalKitties = participants[msg.sender].numPortalKitties.add(1);\n    totalPortalKitties = totalPortalKitties.add(1);\n    emit KittiesPortal(msg.sender, now);\n  }\n\n  function withdraw() onlyOwner public {\n    owner.transfer(address(this).balance);\n  }\n}\n",
  "sourcePath": "/home/newton/github/finalitylabs/eth-beta-access-contracts/contracts/ETHAccess.sol",
  "compiler": {
    "name": "solc",
    "version": "0.4.24+commit.e67f0147.Emscripten.clang"
  },
  "schemaVersion": "2.0.1",
  "updatedAt": "2018-07-30T08:18:53.281Z"
}